{
  "contractName": "SafuSpeak",
  "abi": [
    {
      "inputs": [],
      "payable": false,
      "stateMutability": "nonpayable",
      "type": "constructor"
    },
    {
      "anonymous": false,
      "inputs": [
        {
          "indexed": true,
          "internalType": "address",
          "name": "commenter",
          "type": "address"
        },
        {
          "indexed": true,
          "internalType": "uint256",
          "name": "postId",
          "type": "uint256"
        },
        {
          "indexed": false,
          "internalType": "bytes",
          "name": "comment",
          "type": "bytes"
        },
        {
          "indexed": false,
          "internalType": "uint256",
          "name": "parentComment",
          "type": "uint256"
        },
        {
          "indexed": false,
          "internalType": "uint256",
          "name": "commentTimestamp",
          "type": "uint256"
        },
        {
          "indexed": false,
          "internalType": "uint256",
          "name": "commentId",
          "type": "uint256"
        }
      ],
      "name": "CommentCreated",
      "type": "event"
    },
    {
      "anonymous": false,
      "inputs": [
        {
          "indexed": true,
          "internalType": "address",
          "name": "donator",
          "type": "address"
        },
        {
          "indexed": true,
          "internalType": "uint256",
          "name": "donationValue",
          "type": "uint256"
        },
        {
          "indexed": false,
          "internalType": "uint256",
          "name": "donationTimestamp",
          "type": "uint256"
        },
        {
          "indexed": false,
          "internalType": "uint256",
          "name": "postid",
          "type": "uint256"
        }
      ],
      "name": "DonationMade",
      "type": "event"
    },
    {
      "anonymous": false,
      "inputs": [
        {
          "indexed": true,
          "internalType": "address",
          "name": "author",
          "type": "address"
        },
        {
          "indexed": true,
          "internalType": "uint256",
          "name": "id",
          "type": "uint256"
        },
        {
          "indexed": false,
          "internalType": "bytes",
          "name": "tags",
          "type": "bytes"
        },
        {
          "indexed": false,
          "internalType": "uint256",
          "name": "postTimestamp",
          "type": "uint256"
        },
        {
          "indexed": false,
          "internalType": "bytes",
          "name": "title",
          "type": "bytes"
        },
        {
          "indexed": false,
          "internalType": "bytes",
          "name": "text",
          "type": "bytes"
        }
      ],
      "name": "PostContent",
      "type": "event"
    },
    {
      "anonymous": false,
      "inputs": [
        {
          "indexed": true,
          "internalType": "address",
          "name": "user",
          "type": "address"
        },
        {
          "indexed": true,
          "internalType": "bytes32",
          "name": "username",
          "type": "bytes32"
        }
      ],
      "name": "UsernameCreated",
      "type": "event"
    },
    {
      "constant": false,
      "inputs": [
        {
          "internalType": "bytes",
          "name": "title",
          "type": "bytes"
        },
        {
          "internalType": "bytes",
          "name": "text",
          "type": "bytes"
        },
        {
          "internalType": "bytes",
          "name": "tags",
          "type": "bytes"
        }
      ],
      "name": "CreatePost",
      "outputs": [],
      "payable": false,
      "stateMutability": "nonpayable",
      "type": "function"
    },
    {
      "constant": true,
      "inputs": [
        {
          "internalType": "uint256",
          "name": "postId",
          "type": "uint256"
        }
      ],
      "name": "getOwner",
      "outputs": [
        {
          "internalType": "address",
          "name": "",
          "type": "address"
        }
      ],
      "payable": false,
      "stateMutability": "view",
      "type": "function"
    },
    {
      "constant": false,
      "inputs": [
        {
          "internalType": "uint256",
          "name": "postId",
          "type": "uint256"
        }
      ],
      "name": "UpvotePost",
      "outputs": [],
      "payable": false,
      "stateMutability": "nonpayable",
      "type": "function"
    },
    {
      "constant": false,
      "inputs": [
        {
          "internalType": "uint256",
          "name": "postId",
          "type": "uint256"
        }
      ],
      "name": "DownvotePost",
      "outputs": [],
      "payable": false,
      "stateMutability": "nonpayable",
      "type": "function"
    },
    {
      "constant": true,
      "inputs": [
        {
          "internalType": "uint256",
          "name": "postId",
          "type": "uint256"
        }
      ],
      "name": "getUpVotes",
      "outputs": [
        {
          "internalType": "uint256",
          "name": "",
          "type": "uint256"
        }
      ],
      "payable": false,
      "stateMutability": "view",
      "type": "function"
    },
    {
      "constant": true,
      "inputs": [
        {
          "internalType": "uint256",
          "name": "postId",
          "type": "uint256"
        }
      ],
      "name": "getDownVotes",
      "outputs": [
        {
          "internalType": "uint256",
          "name": "",
          "type": "uint256"
        }
      ],
      "payable": false,
      "stateMutability": "view",
      "type": "function"
    },
    {
      "constant": true,
      "inputs": [
        {
          "internalType": "uint256",
          "name": "postId",
          "type": "uint256"
        },
        {
          "internalType": "address",
          "name": "voter",
          "type": "address"
        }
      ],
      "name": "getVoterData",
      "outputs": [
        {
          "internalType": "uint256",
          "name": "",
          "type": "uint256"
        }
      ],
      "payable": false,
      "stateMutability": "view",
      "type": "function"
    },
    {
      "constant": false,
      "inputs": [
        {
          "internalType": "bytes",
          "name": "text",
          "type": "bytes"
        },
        {
          "internalType": "uint256",
          "name": "postId",
          "type": "uint256"
        },
        {
          "internalType": "uint256",
          "name": "parentComment",
          "type": "uint256"
        }
      ],
      "name": "PostComment",
      "outputs": [],
      "payable": false,
      "stateMutability": "nonpayable",
      "type": "function"
    },
    {
      "constant": false,
      "inputs": [
        {
          "internalType": "uint256",
          "name": "postId",
          "type": "uint256"
        },
        {
          "internalType": "uint256",
          "name": "commendId",
          "type": "uint256"
        }
      ],
      "name": "UpvoteComment",
      "outputs": [],
      "payable": false,
      "stateMutability": "nonpayable",
      "type": "function"
    },
    {
      "constant": false,
      "inputs": [
        {
          "internalType": "uint256",
          "name": "postId",
          "type": "uint256"
        },
        {
          "internalType": "uint256",
          "name": "commendId",
          "type": "uint256"
        }
      ],
      "name": "DownvoteComment",
      "outputs": [],
      "payable": false,
      "stateMutability": "nonpayable",
      "type": "function"
    },
    {
      "constant": true,
      "inputs": [
        {
          "internalType": "uint256",
          "name": "postId",
          "type": "uint256"
        },
        {
          "internalType": "uint256",
          "name": "commendId",
          "type": "uint256"
        }
      ],
      "name": "getCommentUpVotes",
      "outputs": [
        {
          "internalType": "uint256",
          "name": "",
          "type": "uint256"
        }
      ],
      "payable": false,
      "stateMutability": "view",
      "type": "function"
    },
    {
      "constant": true,
      "inputs": [
        {
          "internalType": "uint256",
          "name": "postId",
          "type": "uint256"
        },
        {
          "internalType": "uint256",
          "name": "commendId",
          "type": "uint256"
        }
      ],
      "name": "getCommentDownVotes",
      "outputs": [
        {
          "internalType": "uint256",
          "name": "",
          "type": "uint256"
        }
      ],
      "payable": false,
      "stateMutability": "view",
      "type": "function"
    },
    {
      "constant": true,
      "inputs": [
        {
          "internalType": "uint256",
          "name": "postId",
          "type": "uint256"
        },
        {
          "internalType": "uint256",
          "name": "commendId",
          "type": "uint256"
        },
        {
          "internalType": "address",
          "name": "commenter",
          "type": "address"
        }
      ],
      "name": "getCommentVoterData",
      "outputs": [
        {
          "internalType": "uint256",
          "name": "",
          "type": "uint256"
        }
      ],
      "payable": false,
      "stateMutability": "view",
      "type": "function"
    },
    {
      "constant": true,
      "inputs": [],
      "name": "getPostCounter",
      "outputs": [
        {
          "internalType": "uint256",
          "name": "",
          "type": "uint256"
        }
      ],
      "payable": false,
      "stateMutability": "view",
      "type": "function"
    },
    {
      "constant": false,
      "inputs": [
        {
          "internalType": "uint256",
          "name": "postId",
          "type": "uint256"
        }
      ],
      "name": "makeDonation",
      "outputs": [],
      "payable": true,
      "stateMutability": "payable",
      "type": "function"
    },
    {
      "constant": true,
      "inputs": [
        {
          "internalType": "uint256",
          "name": "postId",
          "type": "uint256"
        }
      ],
      "name": "getPostDonations",
      "outputs": [
        {
          "internalType": "uint256",
          "name": "",
          "type": "uint256"
        }
      ],
      "payable": false,
      "stateMutability": "view",
      "type": "function"
    },
    {
      "constant": false,
      "inputs": [
        {
          "internalType": "bytes32",
          "name": "username",
          "type": "bytes32"
        }
      ],
      "name": "SetUsername",
      "outputs": [],
      "payable": false,
      "stateMutability": "nonpayable",
      "type": "function"
    },
    {
      "constant": true,
      "inputs": [
        {
          "internalType": "address",
          "name": "user",
          "type": "address"
        }
      ],
      "name": "getUsername",
      "outputs": [
        {
          "internalType": "bytes32",
          "name": "",
          "type": "bytes32"
        }
      ],
      "payable": false,
      "stateMutability": "view",
      "type": "function"
    },
    {
      "constant": true,
      "inputs": [],
      "name": "getSenderAddress",
      "outputs": [
        {
          "internalType": "address",
          "name": "",
          "type": "address"
        }
      ],
      "payable": false,
      "stateMutability": "view",
      "type": "function"
    }
  ],
  "bytecode": "0x608060405234801561001057600080fd5b50600080819055506124b5806100276000396000f3fe6080604052600436106101145760003560e01c80637bc43f56116100a0578063b219f91611610064578063b219f916146107b9578063c41a360a146107e7578063ce43c03214610862578063d121c61a146108c7578063e6e553331461090257610114565b80637bc43f56146106245780637dc1aae4146106695780637e6ab916146106c2578063a0a5c2b614610711578063a4245e671461076a57610114565b806342948e18116100e757806342948e181461040857806349ad53ee1461045f5780634e595e3a146104d8578063582e04881461051d57806368b6883e1461054857610114565b80630cbe957e146101195780630d898f481461030f5780630dad041e1461035e57806335c8d82b14610399575b600080fd5b34801561012557600080fd5b5061030d6004803603606081101561013c57600080fd5b810190808035906020019064010000000081111561015957600080fd5b82018360208201111561016b57600080fd5b8035906020019184600183028401116401000000008311171561018d57600080fd5b91908080601f016020809104026020016040519081016040528093929190818152602001838380828437600081840152601f19601f820116905080830192505050505050509192919290803590602001906401000000008111156101f057600080fd5b82018360208201111561020257600080fd5b8035906020019184600183028401116401000000008311171561022457600080fd5b91908080601f016020809104026020016040519081016040528093929190818152602001838380828437600081840152601f19601f8201169050808301925050505050505091929192908035906020019064010000000081111561028757600080fd5b82018360208201111561029957600080fd5b803590602001918460018302840111640100000000831117156102bb57600080fd5b91908080601f016020809104026020016040519081016040528093929190818152602001838380828437600081840152601f19601f82011690508083019250505050505050919291929050505061093d565b005b34801561031b57600080fd5b506103486004803603602081101561033257600080fd5b8101908080359060200190929190505050610d0f565b6040518082815260200191505060405180910390f35b34801561036a57600080fd5b506103976004803603602081101561038157600080fd5b8101908080359060200190929190505050610d2c565b005b3480156103a557600080fd5b506103f2600480360360408110156103bc57600080fd5b8101908080359060200190929190803573ffffffffffffffffffffffffffffffffffffffff169060200190929190505050610f8e565b6040518082815260200191505060405180910390f35b34801561041457600080fd5b5061041d610fe9565b604051808273ffffffffffffffffffffffffffffffffffffffff1673ffffffffffffffffffffffffffffffffffffffff16815260200191505060405180910390f35b34801561046b57600080fd5b506104c26004803603606081101561048257600080fd5b810190808035906020019092919080359060200190929190803573ffffffffffffffffffffffffffffffffffffffff169060200190929190505050610ff1565b6040518082815260200191505060405180910390f35b3480156104e457600080fd5b5061051b600480360360408110156104fb57600080fd5b81019080803590602001909291908035906020019092919050505061105e565b005b34801561052957600080fd5b50610532611460565b6040518082815260200191505060405180910390f35b34801561055457600080fd5b506106226004803603606081101561056b57600080fd5b810190808035906020019064010000000081111561058857600080fd5b82018360208201111561059a57600080fd5b803590602001918460018302840111640100000000831117156105bc57600080fd5b91908080601f016020809104026020016040519081016040528093929190818152602001838380828437600081840152601f19601f8201169050808301925050505050505091929192908035906020019092919080359060200190929190505050611469565b005b34801561063057600080fd5b506106676004803603604081101561064757600080fd5b8101908080359060200190929190803590602001909291905050506117aa565b005b34801561067557600080fd5b506106ac6004803603604081101561068c57600080fd5b810190808035906020019092919080359060200190929190505050611bac565b6040518082815260200191505060405180910390f35b3480156106ce57600080fd5b506106fb600480360360208110156106e557600080fd5b8101908080359060200190929190505050611bdb565b6040518082815260200191505060405180910390f35b34801561071d57600080fd5b506107546004803603604081101561073457600080fd5b810190808035906020019092919080359060200190929190505050611bf8565b6040518082815260200191505060405180910390f35b34801561077657600080fd5b506107a36004803603602081101561078d57600080fd5b8101908080359060200190929190505050611c27565b6040518082815260200191505060405180910390f35b6107e5600480360360208110156107cf57600080fd5b8101908080359060200190929190505050611c44565b005b3480156107f357600080fd5b506108206004803603602081101561080a57600080fd5b8101908080359060200190929190505050611ea3565b604051808273ffffffffffffffffffffffffffffffffffffffff1673ffffffffffffffffffffffffffffffffffffffff16815260200191505060405180910390f35b34801561086e57600080fd5b506108b16004803603602081101561088557600080fd5b81019080803573ffffffffffffffffffffffffffffffffffffffff169060200190929190505050611ee0565b6040518082815260200191505060405180910390f35b3480156108d357600080fd5b50610900600480360360208110156108ea57600080fd5b8101908080359060200190929190505050611f29565b005b34801561090e57600080fd5b5061093b6004803603602081101561092557600080fd5b81019080803590602001909291905050506121a8565b005b60008351116109b4576040517f08c379a000000000000000000000000000000000000000000000000000000000815260040180806020018281038252600d8152602001807f496e76616c6964207469746c650000000000000000000000000000000000000081525060200191505060405180910390fd5b6000825111610a2b576040517f08c379a000000000000000000000000000000000000000000000000000000000815260040180806020018281038252600c8152602001807f496e76616c69642074657874000000000000000000000000000000000000000081525060200191505060405180910390fd5b6000815111610aa2576040517f08c379a000000000000000000000000000000000000000000000000000000000815260040180806020018281038252600c8152602001807f496e76616c69642074616773000000000000000000000000000000000000000081525060200191505060405180910390fd5b600080549050336001600083815260200190815260200160002060006101000a81548173ffffffffffffffffffffffffffffffffffffffff021916908373ffffffffffffffffffffffffffffffffffffffff160217905550600160026000838152602001908152602001600020819055506001600460003373ffffffffffffffffffffffffffffffffffffffff1673ffffffffffffffffffffffffffffffffffffffff168152602001908152602001600020600083815260200190815260200160002081905550803373ffffffffffffffffffffffffffffffffffffffff167fdc220f0be468e8336935034fc4829e5d0e772978345b486fa47d2d09bd32cc118442888860405180806020018581526020018060200180602001848103845288818151815260200191508051906020019080838360005b83811015610bf4578082015181840152602081019050610bd9565b50505050905090810190601f168015610c215780820380516001836020036101000a031916815260200191505b50848103835286818151815260200191508051906020019080838360005b83811015610c5a578082015181840152602081019050610c3f565b50505050905090810190601f168015610c875780820380516001836020036101000a031916815260200191505b50848103825285818151815260200191508051906020019080838360005b83811015610cc0578082015181840152602081019050610ca5565b50505050905090810190601f168015610ced5780820380516001836020036101000a031916815260200191505b5097505050505050505060405180910390a36001810160008190555050505050565b600060036000838152602001908152602001600020549050919050565b6000811015610da3576040517f08c379a000000000000000000000000000000000000000000000000000000000815260040180806020018281038252601d8152602001807f766f746573206973206e6f7420666f7220612076616c696420706f737400000081525060200191505060405180910390fd5b6000548110610e1a576040517f08c379a00000000000000000000000000000000000000000000000000000000081526004018080602001828103825260208152602001807f766f74657320697320666f722061206e6f6e206578697374656e7420706f737481525060200191505060405180910390fd5b6000600460003373ffffffffffffffffffffffffffffffffffffffff1673ffffffffffffffffffffffffffffffffffffffff16815260200190815260200160002060008381526020019081526020016000205490506002811415610ee6576040517f08c379a00000000000000000000000000000000000000000000000000000000081526004018080602001828103825260158152602001807f646f776e766f746520616c726561647920646f6e65000000000000000000000081525060200191505060405180910390fd5b6001811415610f1257600160026000848152602001908152602001600020600082825403925050819055505b6002600460003373ffffffffffffffffffffffffffffffffffffffff1673ffffffffffffffffffffffffffffffffffffffff168152602001908152602001600020600084815260200190815260200160002081905550600160036000848152602001908152602001600020600082825401925050819055505050565b6000600460008373ffffffffffffffffffffffffffffffffffffffff1673ffffffffffffffffffffffffffffffffffffffff168152602001908152602001600020600084815260200190815260200160002054905092915050565b600033905090565b6000600960008373ffffffffffffffffffffffffffffffffffffffff1673ffffffffffffffffffffffffffffffffffffffff168152602001908152602001600020600085815260200190815260200160002060008481526020019081526020016000205490509392505050565b60008210156110d5576040517f08c379a000000000000000000000000000000000000000000000000000000000815260040180806020018281038252601d8152602001807f766f746573206973206e6f7420666f7220612076616c696420706f737400000081525060200191505060405180910390fd5b600054821061114c576040517f08c379a00000000000000000000000000000000000000000000000000000000081526004018080602001828103825260208152602001807f766f74657320697320666f722061206e6f6e206578697374656e7420706f737481525060200191505060405180910390fd5b60008110156111c3576040517f08c379a00000000000000000000000000000000000000000000000000000000081526004018080602001828103825260178152602001807f636f6d6d656e74206964206973206e6f742076616c696400000000000000000081525060200191505060405180910390fd5b600560008381526020019081526020016000205481111561124c576040517f08c379a000000000000000000000000000000000000000000000000000000000815260040180806020018281038252601a8152602001807f636f6d6d656e74206964206973206e6f6e206578697374656e7400000000000081525060200191505060405180910390fd5b6001600960003373ffffffffffffffffffffffffffffffffffffffff1673ffffffffffffffffffffffffffffffffffffffff16815260200190815260200160002060008481526020019081526020016000206000838152602001908152602001600020541415611324576040517f08c379a00000000000000000000000000000000000000000000000000000000081526004018080602001828103825260138152602001807f5570766f746520616c726561647920646f6e650000000000000000000000000081525060200191505060405180910390fd5b6002600960003373ffffffffffffffffffffffffffffffffffffffff1673ffffffffffffffffffffffffffffffffffffffff168152602001908152602001600020600084815260200190815260200160002060008381526020019081526020016000205414156113c2576001600860008481526020019081526020016000206000838152602001908152602001600020600082825403925050819055505b6001600960003373ffffffffffffffffffffffffffffffffffffffff1673ffffffffffffffffffffffffffffffffffffffff16815260200190815260200160002060008481526020019081526020016000206000838152602001908152602001600020819055506001600760008481526020019081526020016000206000838152602001908152602001600020600082825401925050819055505050565b60008054905090565b60008210156114e0576040517f08c379a000000000000000000000000000000000000000000000000000000000815260040180806020018281038252601f8152602001807f636f6d6d656e74206973206e6f7420666f7220612076616c696420706f73740081525060200191505060405180910390fd5b600054821061153a576040517f08c379a00000000000000000000000000000000000000000000000000000000081526004018080602001828103825260228152602001806124356022913960400191505060405180910390fd5b60008351116115b1576040517f08c379a00000000000000000000000000000000000000000000000000000000081526004018080602001828103825260188152602001807f636f6d6d656e7420636f6d6d656e7420697320656d707479000000000000000081525060200191505060405180910390fd5b600060056000848152602001908152602001600020549050823373ffffffffffffffffffffffffffffffffffffffff167f5c7252053e11b0d1b89164a47c163c5f5027f50b79dc32cc22920d6bc21e189a868542866040518080602001858152602001848152602001838152602001828103825286818151815260200191508051906020019080838360005b8381101561165857808201518184015260208101905061163d565b50505050905090810190601f1680156116855780820380516001836020036101000a031916815260200191505b509550505050505060405180910390a33360066000858152602001908152602001600020600083815260200190815260200160002060006101000a81548173ffffffffffffffffffffffffffffffffffffffff021916908373ffffffffffffffffffffffffffffffffffffffff1602179055506001600760008581526020019081526020016000206000838152602001908152602001600020819055506001600960003373ffffffffffffffffffffffffffffffffffffffff1673ffffffffffffffffffffffffffffffffffffffff168152602001908152602001600020600085815260200190815260200160002060008381526020019081526020016000208190555060018101600560008581526020019081526020016000208190555050505050565b6000821015611821576040517f08c379a000000000000000000000000000000000000000000000000000000000815260040180806020018281038252601d8152602001807f766f746573206973206e6f7420666f7220612076616c696420706f737400000081525060200191505060405180910390fd5b6000548210611898576040517f08c379a00000000000000000000000000000000000000000000000000000000081526004018080602001828103825260208152602001807f766f74657320697320666f722061206e6f6e206578697374656e7420706f737481525060200191505060405180910390fd5b600081101561190f576040517f08c379a00000000000000000000000000000000000000000000000000000000081526004018080602001828103825260178152602001807f636f6d6d656e74206964206973206e6f742076616c696400000000000000000081525060200191505060405180910390fd5b6005600083815260200190815260200160002054811115611998576040517f08c379a000000000000000000000000000000000000000000000000000000000815260040180806020018281038252601a8152602001807f636f6d6d656e74206964206973206e6f6e206578697374656e7400000000000081525060200191505060405180910390fd5b6002600960003373ffffffffffffffffffffffffffffffffffffffff1673ffffffffffffffffffffffffffffffffffffffff16815260200190815260200160002060008481526020019081526020016000206000838152602001908152602001600020541415611a70576040517f08c379a00000000000000000000000000000000000000000000000000000000081526004018080602001828103825260138152602001807f5570766f746520616c726561647920646f6e650000000000000000000000000081525060200191505060405180910390fd5b6001600960003373ffffffffffffffffffffffffffffffffffffffff1673ffffffffffffffffffffffffffffffffffffffff16815260200190815260200160002060008481526020019081526020016000206000838152602001908152602001600020541415611b0e576001600760008481526020019081526020016000206000838152602001908152602001600020600082825403925050819055505b6002600960003373ffffffffffffffffffffffffffffffffffffffff1673ffffffffffffffffffffffffffffffffffffffff16815260200190815260200160002060008481526020019081526020016000206000838152602001908152602001600020819055506001600860008481526020019081526020016000206000838152602001908152602001600020600082825401925050819055505050565b600060076000848152602001908152602001600020600083815260200190815260200160002054905092915050565b600060026000838152602001908152602001600020549050919050565b600060086000848152602001908152602001600020600083815260200190815260200160002054905092915050565b6000600a6000838152602001908152602001600020549050919050565b60003411611cba576040517f08c379a00000000000000000000000000000000000000000000000000000000081526004018080602001828103825260118152602001807f6e6f2061747461636865642076616c756500000000000000000000000000000081525060200191505060405180910390fd5b6000811015611d31576040517f08c379a000000000000000000000000000000000000000000000000000000000815260040180806020018281038252601d8152602001807f766f746573206973206e6f7420666f7220612076616c696420706f737400000081525060200191505060405180910390fd5b6000548110611da8576040517f08c379a00000000000000000000000000000000000000000000000000000000081526004018080602001828103825260208152602001807f766f74657320697320666f722061206e6f6e206578697374656e7420706f737481525060200191505060405180910390fd5b60006001600083815260200190815260200160002060009054906101000a900473ffffffffffffffffffffffffffffffffffffffff1690508073ffffffffffffffffffffffffffffffffffffffff166108fc349081150290604051600060405180830381858888f19350505050158015611e26573d6000803e3d6000fd5b5034600a600084815260200190815260200160002060008282540192505081905550343373ffffffffffffffffffffffffffffffffffffffff167fd7570171f3eec5b5e70a829a2f7b1a40853d0159967de2efe2bf99208b9a560d4285604051808381526020018281526020019250505060405180910390a35050565b60006001600083815260200190815260200160002060009054906101000a900473ffffffffffffffffffffffffffffffffffffffff169050919050565b6000600c60008373ffffffffffffffffffffffffffffffffffffffff1673ffffffffffffffffffffffffffffffffffffffff168152602001908152602001600020549050919050565b60001515600b600083815260200190815260200160002060009054906101000a900460ff16151514611fa6576040517f08c379a000000000000000000000000000000000000000000000000000000000815260040180806020018281038252602a815260200180612457602a913960400191505060405180910390fd5b6000600c60003373ffffffffffffffffffffffffffffffffffffffff1673ffffffffffffffffffffffffffffffffffffffff16815260200190815260200160002054905081811415612043576040517f08c379a000000000000000000000000000000000000000000000000000000000815260040180806020018281038252602a81526020018061240b602a913960400191505060405180910390fd5b6000801b8114156120c35781600c60003373ffffffffffffffffffffffffffffffffffffffff1673ffffffffffffffffffffffffffffffffffffffff168152602001908152602001600020819055506001600b600084815260200190815260200160002060006101000a81548160ff021916908315150217905550612160565b81600c60003373ffffffffffffffffffffffffffffffffffffffff1673ffffffffffffffffffffffffffffffffffffffff168152602001908152602001600020819055506001600b600084815260200190815260200160002060006101000a81548160ff0219169083151502179055506000600b600083815260200190815260200160002060006101000a81548160ff0219169083151502179055505b813373ffffffffffffffffffffffffffffffffffffffff167f98669deded710d3d7f0c348e87e0a023ce76d0784aa090cb348048e3f9c88a3460405160405180910390a35050565b600081101561221f576040517f08c379a000000000000000000000000000000000000000000000000000000000815260040180806020018281038252601d8152602001807f766f746573206973206e6f7420666f7220612076616c696420706f737400000081525060200191505060405180910390fd5b6000548110612296576040517f08c379a00000000000000000000000000000000000000000000000000000000081526004018080602001828103825260208152602001807f766f74657320697320666f722061206e6f6e206578697374656e7420706f737481525060200191505060405180910390fd5b6000600460003373ffffffffffffffffffffffffffffffffffffffff1673ffffffffffffffffffffffffffffffffffffffff16815260200190815260200160002060008381526020019081526020016000205490506001811415612362576040517f08c379a00000000000000000000000000000000000000000000000000000000081526004018080602001828103825260138152602001807f5570766f746520616c726561647920646f6e650000000000000000000000000081525060200191505060405180910390fd5b600281141561238e57600160036000848152602001908152602001600020600082825403925050819055505b6001600460003373ffffffffffffffffffffffffffffffffffffffff1673ffffffffffffffffffffffffffffffffffffffff16815260200190815260200160002060008481526020019081526020016000208190555060016002600084815260200190815260200160002060008282540192505081905550505056fe5468697320757365726e616d6520697320616c72656164792073657420746f207468652073656e646572636f6d6d656e7420697320666f722061206e6f6e206578697374656e7420706f7374757365726e616d65206973207265676973746572656420746f20616e206f776e657220616c7265616479a265627a7a723158209c01d424fe8be23d44d530900beadfe00f366d0c63d961b548ce34fc97bf11de64736f6c63430005100032",
  "source": "pragma solidity >=0.4.23;\r\n\r\n//No Filter is a dApp created for the Binance Smartchain Hackathon\r\n//The smart contract enables content creation\r\n//as well as metric tracking and other logic\r\n//When coupled with the frontend, it creates an experience similar to a \r\n//traditional blog style social website such as classic reddit\r\n//Created By Hephyrius (Github.com/Hephyrius)\r\n//Repository can be found at (Github.com/Hephyrius/BinanceSmartChain)\r\n\r\ncontract SafuSpeak {\r\n    \r\n    //post related variables\r\n    uint postNumber; // keeps track of posts so that every one is unique\r\n    mapping (uint => address) postOwners; //Keeps track of who owns a specific post\r\n    mapping (uint => uint) upvotes; // keeps track of a posts vote counter\r\n    mapping (uint => uint) downvotes; // keeps track of a posts vote counter\r\n    mapping (address => mapping(uint => uint)) voters; //keeps track of a users voting history, helps to prevent vote spamming from a single account\r\n    \r\n    //comment related variables\r\n    mapping (uint => uint) commentCounter; // keeps track of posts so that every one is unique\r\n    mapping (uint => mapping(uint => address)) commentOwner; //Keeps track of who owns a specific post\r\n    mapping (uint => mapping(uint => uint)) commentUpVotes; // keeps track of a posts vote counter\r\n    mapping (uint => mapping(uint => uint)) commentDownVotes; // keeps track of a posts vote counter\r\n    mapping (address => mapping(uint => mapping(uint => uint))) commentVoters; //keeps track of a users voting history, helps to prevent vote spamming from a single account\r\n    \r\n    //Donation System\r\n    mapping (uint => uint) postEarnings;\r\n    //mapping (uint => mapping(uint => uint)) commentEarnings;\r\n    \r\n    //username System\r\n    mapping (bytes32 => bool) usernamesTaken;\r\n    mapping (address => bytes32) usernames;\r\n    \r\n    constructor () public {\r\n        postNumber = 0;\r\n    }\r\n    \r\n    //Invoked when the post has been created, so that the dApp can access the content\r\n    event PostContent (\r\n        address indexed author,\r\n        uint indexed id,\r\n        bytes tags,\r\n        uint postTimestamp, //used to generate private post unique key\r\n        bytes title,\r\n        bytes text\r\n    );\r\n    \r\n    //create a new post, done by storing data in the logs. data can be in any form as long as it is byte data. This means data can be compressed\r\n    function CreatePost(bytes memory title, bytes memory text, bytes memory tags) public {\r\n        \r\n        //check that the data is correct\r\n        require(title.length > 0, \"Invalid title\");\r\n        require(text.length > 0, \"Invalid text\");\r\n        require(tags.length > 0, \"Invalid tags\");\r\n        \r\n        uint postId = postNumber;\r\n        //init the mapping and set the owner as the sender\r\n        postOwners[postId] = msg.sender;\r\n        \r\n        //init votes so that the owner has upvoted by default.\r\n        upvotes[postId] = 1;\r\n        voters[msg.sender][postId] = 1;\r\n        \r\n        //posts are stored in logs, it allows to reduce post invocation cost\r\n        emit PostContent(msg.sender, postId, tags, now, title, text);\r\n        \r\n        postNumber = postId + 1;\r\n    }\r\n    \r\n    //get the owner of a post\r\n    function getOwner(uint postId) public view returns (address) {\r\n        return postOwners[postId];\r\n    }\r\n    \r\n    //upvote a post \r\n    function UpvotePost(uint postId) public {\r\n        require(postId >= 0, \"votes is not for a valid post\");\r\n        require(postId < postNumber, \"votes is for a non existent post\");\r\n        \r\n        uint knownType = voters[msg.sender][postId];\r\n        require(knownType != 1, \"Upvote already done\");\r\n        if (knownType == 2) {\r\n            downvotes[postId] -= 1;\r\n        }\r\n        voters[msg.sender][postId] = 1;\r\n        upvotes[postId] += 1;\r\n    }\r\n    \r\n    //downvote a post \r\n    function DownvotePost(uint postId) public {\r\n        require(postId >= 0, \"votes is not for a valid post\");\r\n        require(postId < postNumber, \"votes is for a non existent post\");\r\n\r\n        uint knownType = voters[msg.sender][postId];\r\n        require(knownType != 2, \"downvote already done\");\r\n        if (knownType == 1) {\r\n            upvotes[postId] -= 1;\r\n        }\r\n        voters[msg.sender][postId] = 2;\r\n        downvotes[postId] += 1;\r\n    }\r\n    \r\n    //get the vote data\r\n    function getUpVotes(uint postId) public view returns (uint) {\r\n        return upvotes[postId];\r\n    }\r\n\r\n    //get the vote data\r\n    function getDownVotes(uint postId) public view returns (uint) {\r\n        return downvotes[postId];\r\n    }\r\n    \r\n    //get the voter data\r\n    function getVoterData(uint postId, address voter) public view returns (uint) {\r\n        return voters[voter][postId];\r\n    }\r\n\r\n    /////////// Comment functionality\r\n\r\n    //stores a log comment on the blockchain when commented\r\n    event CommentCreated (\r\n        address indexed commenter,\r\n        uint indexed postId,\r\n        bytes comment,\r\n        uint parentComment,\r\n\t\tuint commentTimestamp,\r\n\t\tuint commentId\r\n    );\r\n    \r\n    function PostComment(bytes memory text, uint postId, uint parentComment) public {\r\n        require(postId >= 0, \"comment is not for a valid post\");\r\n        require(postId < postNumber, \"comment is for a non existent post\");\r\n        require(text.length > 0, \"comment comment is empty\");\r\n\t\t\r\n\t\t//update comment related variables\r\n        uint commentId = commentCounter[postId];\r\n\t\t\r\n\t\t//emit to the blockchain\r\n        emit CommentCreated(msg.sender, postId, text, parentComment, now, commentId);\r\n        \r\n\r\n        commentOwner[postId][commentId] = msg.sender;\r\n        \r\n        //deal with upvote data\r\n        commentUpVotes[postId][commentId] = 1;\r\n        commentVoters[msg.sender][postId][commentId] = 1;\r\n        \r\n        //increment counter when done\r\n        commentCounter[postId] = commentId + 1;\r\n    }\r\n    \r\n    //upvote a post \r\n    function UpvoteComment(uint postId, uint commendId) public {\r\n        require(postId >= 0, \"votes is not for a valid post\");\r\n        require(postId < postNumber, \"votes is for a non existent post\");\r\n        \r\n        require(commendId >= 0, \"comment id is not valid\");\r\n        require(commendId <= commentCounter[postId], \"comment id is non existent\");\r\n        require(commentVoters[msg.sender][postId][commendId] != 1, \"Upvote already done\");\r\n\r\n        if (commentVoters[msg.sender][postId][commendId] == 2) {\r\n            commentDownVotes[postId][commendId] -= 1;\r\n        }\r\n\r\n        commentVoters[msg.sender][postId][commendId] = 1;\r\n        commentUpVotes[postId][commendId] += 1;\r\n    }\r\n    \r\n    //downvote a post \r\n    function DownvoteComment(uint postId, uint commendId) public {\r\n        require(postId >= 0, \"votes is not for a valid post\");\r\n        require(postId < postNumber, \"votes is for a non existent post\");\r\n        \r\n        require(commendId >= 0, \"comment id is not valid\");\r\n        require(commendId <= commentCounter[postId], \"comment id is non existent\");\r\n        require(commentVoters[msg.sender][postId][commendId] != 2, \"Upvote already done\");\r\n        \r\n        if (commentVoters[msg.sender][postId][commendId] == 1) {\r\n            commentUpVotes[postId][commendId] -= 1;\r\n        }\r\n\r\n        commentVoters[msg.sender][postId][commendId] = 2;\r\n        commentDownVotes[postId][commendId] += 1;\r\n    }\r\n    \r\n    //get the comment vote data\r\n    function getCommentUpVotes(uint postId, uint commendId) public view returns (uint) {\r\n        return commentUpVotes[postId][commendId];\r\n    }\r\n\r\n    //get the comment vote data\r\n    function getCommentDownVotes(uint postId, uint commendId) public view returns (uint) {\r\n        return commentDownVotes[postId][commendId];\r\n    }\r\n    \r\n    //get the comment voter data\r\n    function getCommentVoterData(uint postId, uint commendId, address commenter) public view returns (uint) {\r\n        return commentVoters[commenter][postId][commendId];\r\n    } \r\n\r\n    //get the total number of posts\r\n    function getPostCounter() public view returns (uint) {\r\n        return postNumber;\r\n    }\r\n\r\n    //Donation System \r\n    \r\n    //make a donation to a post\r\n    function makeDonation(uint postId) public payable {\r\n        require(msg.value > 0, \"no attached value\");\r\n        require(postId >= 0, \"votes is not for a valid post\");\r\n        require(postId < postNumber, \"votes is for a non existent post\");\r\n        \r\n        address payable owner = address(uint160(postOwners[postId]));\r\n        owner.transfer(msg.value);\r\n        \r\n        //post owner\r\n        postEarnings[postId] += msg.value;\r\n        emit DonationMade(msg.sender, msg.value, now, postId);\r\n    }\r\n    \r\n    //Invoked when a donation is made\r\n    event DonationMade (\r\n        address indexed donator,\r\n        uint indexed donationValue,\r\n        uint donationTimestamp,\r\n        uint postid\r\n    );\r\n    \r\n    //get post donations\r\n    function getPostDonations(uint postId) public view returns (uint) {\r\n        return postEarnings[postId];\r\n    }\r\n    \r\n    // Username System\r\n    //Invoked when the post has been created, so that the dApp can access the content\r\n    event UsernameCreated (\r\n        address indexed user,\r\n        bytes32 indexed username\r\n    );\r\n    \r\n    //create a new post, done by storing data in the logs. data can be in any form as long as it is byte data. This means data can be compressed\r\n    function SetUsername(bytes32 username) public {\r\n        \r\n        require (usernamesTaken[username] == false, \"username is registered to an owner already\");\r\n        \r\n        bytes32 currentUsername = usernames[msg.sender];\r\n        require(currentUsername != username, \"This username is already set to the sender\");\r\n        \r\n        //if the user does not have a username then set it\r\n        if(currentUsername == 0x0){\r\n            usernames[msg.sender] = username;\r\n            usernamesTaken[username] = true;\r\n        }else{\r\n        //else update the currently known username and make the old username available to other users\r\n            usernames[msg.sender] = username;\r\n            usernamesTaken[username] = true;\r\n            usernamesTaken[currentUsername] = false;\r\n        }\r\n        //posts are stored in logs, it allows to reduce post invocation cost\r\n        emit UsernameCreated(msg.sender, username);\r\n        \r\n    }\r\n    \r\n    //get the stored username for a given address\r\n    function getUsername(address user) public view returns (bytes32) {\r\n        return usernames[user];\r\n    }\r\n\r\n    //UTIL FUNCTIONS\r\n\r\n    //get the user\r\n    function getSenderAddress() public view returns (address) {\r\n        return msg.sender;\r\n    }\r\n}\r\n",
  "sourcePath": "C:/Users/Khera/Documents/GitHub/BSC_Hackathon/Solidity/contracts/SafuSpeak.sol",
  "compiler": {
    "name": "solc",
    "version": "0.5.16+commit.9c3226ce.Emscripten.clang"
  },
  "schemaVersion": "3.3.4",
  "updatedAt": "2021-02-21T23:25:22.636Z",
  "devdoc": {
    "methods": {}
  },
  "userdoc": {
    "methods": {}
  }
}